:0A0000000C944F010C9400000C94C6
:10000A0000000C9400000C9400000C94C3010C94A2
:10001A0000000C9400000C9400000C947F010C94D6
:10002A0000000C9400000C9400000C9400000C9446
:10003A0000000C9400000C9400000C9400000C9436
:10004A0000000C9400000C940000FFFFFFFFFFFF6C
:10005A00FFFFFFFFFFFFFFFFFFFF7FFE3FFC0FF8E1
:10006A0007F007E007F00FF81FFC3FFE7FFFFFFFD6
:10007A00FFFFFFFFFFFFFFFFFFFFFFFF7FFE3FFEC8
:10008A003FFC1FFC1FFC1FFC1FF83FF83FF83FF81E
:10009A007FF87FF87FF87FF8FFF8FFF8FFF8FFF89E
:1000AA00FFF8FFF8FFF8FFFCFFFDFFDFCFCF8FCF90
:1000BA0007C207C003C003C007C007E00FF01FFC58
:1000CA001FFC1FFC3FFC3FFC3FFC3FFC3FFC3FFC8E
:1000DA007FFC7FFC7FFE7FFE7FFEF77DE339E338FE
:1000EA000100010000000180018003C007E607FF4C
:1000FA0007FF0FFF0FFF0FFF0FFF0FFF0FFF0FFF8E
:10010A001FFF9FFF9FFF9FFFFFFFFFC1E780478001
:10011A0003FE03FF017F01000300078007C00FE011
:10012A000FFE1FFE1FFE1FFE1FFE1FFE3FFE3FFEAD
:10013A003FFE3FFE3FFF3FFF3FFFFFFE7FFC3FFCCE
:10014A003FF83FF01FF01FE01FE09FC08FC1CF8331
:10015A00C783E787E78FE30FF30EE31E630C030001
:10016A0003800380038007C18FE3FFF03FE01FC0D5
:10017A001FC08FFFC7FFE71FC70F07000780078051
:10018A000F803FE01FF81FFC0FFE07FF87FFC7FF26
:10019A00C3FFE3FFF3FFF3FFFBFFF7FFF79FE39FC5
:1001AA00C38FC307810781038303038107C107C084
:1001BA000FE00FF01FF01FF03FF83FF83FFC3FFC45
:1001CA007FFC7FFC7FFE7FFEFFFEFFFCFFFCFFFC47
:1001DA007FFC7FF87FF87FF83FF03FF03FF01FE0A9
:1001EA001FE00FE007C10781038381038103C10771
:1001FA00C307E38FE38FF39FFFFFFFFF3FFC1FF867
:10020A000FF00FF007F0E7F0E7F103F003F003F067
:10021A0007F007F0FFF0FFF0FFF0FFE0FFE0FFC09C
:10022A00FFC1FFE1FFE1FFE3FFE7FFFFFFFFFFFF82
:10023A00FFFFFFFFFFFFFFFFFFFFC1FFC1FFC1FF7E
:10024A00C1FFC1FFFFFFFFFFFFFFFFFFC1FFC1FFAC
:10025A00C1FFC1FFC1FFFFFFFFFF17003B002F00D7
:10026A000600070005006A05010004006402010097
:10027A0007006602010006006802010009006A021E
:10028A00010008006C0201000B006E0202000C0063
:10029A0070020000F894EE27ECBBF1E0FBBFEBBF65
:1002AA00E5BFF8E1F1BDE1BD8DE0A2E0BB27ED932A
:1002BA008A95E9F780E098E0A0E6ED930197E9F7DF
:1002CA00E2E7F2E085919591009761F0A591B591E9
:1002DA0005901590BF01F00105900D920197E1F785
:1002EA00FB01F0CFEFE5EDBFE8E0EEBFC0E6D2E0FC
:1002FA000C94FE010A921A929A93AA93BA93EA93D9
:10030A00FA93EFB7EA931A930A9310E0E1EDEDBD81
:10031A00EFE1ECBDC09AA1D0B1D09FD03196AED05A
:10032A00BBD0ACD0B9D03196A9D0C7D0D0D0A6D046
:10033A00CED03196A3D0DCD0A1D0DAD031969ED0DF
:10034A00BCD0E7D09BD0E5D0319698D0F3D096D0E8
:10035A00F1D0319693D0C09855BA5394E8E1E51597
:10036A0009F4552409911991E991EFBFF991E9919D
:10037A00B991A9919991199009901895EA93FA93CC
:10038A00EFB7EA93EBE3E61571F56624E71549F54D
:10039A007724E7E1E41519F54424E6E0E91511F4B8
:1003AA00992401C09394E7E0BE1640F4EFE1E81502
:1003BA0019F48824B39401C0839410C0EEE1E815BF
:1003CA0061F48824ECE0EB1531F4E1E0BE2EF6018D
:1003DA0031966F0101C0B39401C0839401C0439464
:1003EA0001C0739401C06394E991EFBFF991E99157
:1003FA001895E0E0EBBBEFEFEABBE0E0E8BBE1E039
:10040A00E7BBE0E0E5BBEFEFE4BBE0E0E2BBEFEF28
:10041A00E1BBE0E0E3BFE2BFECBFEFBDE1E8EEBD68
:10042A00E2EAEDBDEFE3ECBDE0E0E7BDE6BDEBBD22
:10043A00EABDE9BDE8BDE8E0E2BDE5E0E5BDE0E032
:10044A00E4BDE3BDE5BFE4BFE4E4E9BFE0E8E8B941
:10045A00E0E0E0BF7894FFCFFFCFA42DEAE00E944E
:10046A00B002A0E3EA9FF001EC5AFF4FDF01E52D4D
:10047A00F0E0EE0FFF1FEA0FFB1F0895E491AFEFC4
:10048A000E94C102EA1BE2BBE12FE062E5BBE5B3D1
:10049A00E063E5BB1F5F0895A42DEAE00E94BE0257
:1004AA00A0E3EA9FF001EC5AFF4FDF01E52DF0E0EF
:1004BA00EE0FFF1FEA0FFB1F0895E4E3F2E0DF01EE
:1004CA00E52DF0E0EE0FFF1FEA0FFB1FD7CFA72D98
:1004DA00EAE00E94B002A0E3EA9FF001EC5AFF4F63
:1004EA00DF01E52DF0E0EE0FFF1FEA0FFB1F089575
:1004FA00A72DEAE00E94BE02A0E3EA9FF001EC5AAF
:10050A00FF4FDF01E52DF0E0EE0FFF1FEA0FFB1FA3
:10051A000895A62DEAE00E94B002A0E3EA9FF00146
:10052A00EC5AFF4FDF01E52DF0E0EE0FFF1FEA0F57
:10053A00FB1F0895A62DEAE00E94BE02A0E3EA9FEF
:10054A00F001EC5AFF4FDF01E52DF0E0EE0FFF1F3F
:10055A00EA0FFB1F0895002498E0AA0F001C0E1A48
:10056A0010F40E0E01C0A1609A95B9F7EA2FA02DDA
:10057A000895F1DFEA2F08951A2EAE2FE12D08957E
:00000001FF
